:020000040800F2
:10000000600600200D020008490200084B020008AB
:100010004D0200084F0200085102000800000000D5
:100020000000000000000000000000005302000873
:10003000550200080000000057020008590200089D
:100040005B0200085B0200085B0200085B0200081C
:100050005B0200085B0200085B0200085B0200080C
:100060005B0200085B0200085B0200085B020008FC
:100070005B0200085B0200085B0200085B020008EC
:100080005B0200085B0200085B0200085B020008DC
:100090005B0200085B0200085B0200085B020008CC
:1000A0005B0200085B0200085B0200085B020008BC
:1000B0005B0200085B0200085B0200085B020008AC
:1000C0005B0200085B0200085B0200085B0200089C
:1000D0005B0200085B0200085B0200085B0200088C
:1000E0005B0200085B0200085B0200085B0200087C
:1000F0005B0200085B0200085B0200085B0200086C
:100100005B0200085B0200085B0200085B0200085B
:100110005B0200085B0200085B0200085B0200084B
:100120005B0200085B0200085B0200085B0200083B
:100130005B0200085B0200085B0200085B0200082B
:100140005B0200085B0200085B0200085B0200081B
:100150005B0200085B0200085B0200085B0200080B
:100160005B0200085B0200085B0200085B020008FB
:100170005B0200085B0200085B0200080000000050
:100180005B0200085B02000800F002F800F02EF8A5
:100190000AA090E8000C82448344AAF10107DA45E2
:1001A00001D100F023F8AFF2090EBAE80F0013F006
:1001B000010F18BFFB1A43F001031847BC030000EE
:1001C000CC0300000023002400250026103A28BF9D
:1001D00078C1FBD8520728BF30C148BF0B607047B9
:1001E0001FB500F0C3F91FBD10B510BD00F053F8E6
:1001F0001146FFF7F5FF00F05FF900F071F803B466
:10020000FFF7F2FF03BC00F079F800001648174929
:10021000174B99423CBF50F8042B41F8042BF8D3FC
:1002200014494FF000028B4238BF43F8042BFAD335
:10023000DFF84400016841F470010160BFF34F8FA3
:10024000BFF36F8F0D480047FEE7FEE7FEE7FEE7CE
:10025000FEE7FEE7FEE7FEE7FEE7FEE7084809499E
:10026000094A0A4B7047000088050008000000207A
:10027000000000206006002088ED00E089010008F1
:100280006000002060060020600200206002002064
:10029000704770477047754600F02CF8AE46050071
:1002A0006946534620F00700854618B020B5FFF791
:1002B000D5FFBDE820404FF000064FF000074FF09B
:1002C00000084FF0000B21F00701AC46ACE8C00974
:1002D000ACE8C009ACE8C009ACE8C0098D4670477D
:1002E00010B50446AFF300802046BDE81040FFF78C
:1002F00086BF000000487047000000200149182018
:10030000ABBEFEE7260002007047000067480068A9
:1003100040F480706549086000BF6448006800F4DC
:1003200080600028F9D06148806820F003005F49B0
:1003300088600846806840F00100886000BF5B4824
:10034000806800F00C000028F9D05848C06C40F0DC
:1003500001005649C8640846C06C40F00200C864F9
:100360000846C06C40F01000C8645148006840F076
:1003700010004F4908600846006820F0200008601F
:10038000081D006820F00400091D086048480C3072
:10039000006820F0100046490C31086008460068EB
:1003A00020F0200008604348006840F48030414954
:1003B00008600846006820F400300860084640687D
:1003C00020F4807048600846C06820F48030C8601F
:1003D0000846C06820F40030C8604FF090400068C4
:1003E00020F001004FF0904108600846006820F0BE
:1003F000020008600846006820F004000860084613
:10040000006820F0080008600846006820F010002E
:1004100008600846006820F0200008600846006870
:1004200020F0400008600846006820F08000086066
:100430000846006820F4806008600846006820F4E0
:10044000006008600846C06820F00100C8600846E7
:10045000C06840F00200C8600846C06820F0040090
:10046000C8600846C06840F00800C8600846C06818
:1004700020F01000C8600846C06840F02000C86046
:100480000846C06820F04000C8600846C06840F0D8
:100490008000C8600846C06820F48060C8600846D4
:1004A000C06840F40060C86070470000001002405F
:1004B0000004004800100048FFF728FF01E000F0AA
:1004C00001F8FCE74FF09040006900F0020028B10D
:1004D0002448406980F48070224948614FF0904080
:1004E000006900F0040028B11F48006880F0040093
:1004F0001D4908604FF09040006900F0080058B1B5
:100500001848406940F480701649486116480068F0
:1005100040F00400144908604FF09040006900F07A
:10052000200058B10F48406920F480700D4948619F
:100530000D48006820F004000B4908604FF090401F
:10054000006900F0010058B10648406980F48070ED
:10055000044948610448006880F0040002490860CA
:100560007047000000100048140400484FF040702D
:10057000E1EE100A70470000880500080000002026
:0805800060060000C401000840
:040000050800018965
:00000001FF
